{
  "contractName": "ERC1155Token",
  "abi": [
    {
      "inputs": [
        {
          "internalType": "string",
          "name": "_contractName",
          "type": "string"
        },
        {
          "internalType": "string",
          "name": "_uri",
          "type": "string"
        },
        {
          "internalType": "string[]",
          "name": "_names",
          "type": "string[]"
        },
        {
          "internalType": "uint256[]",
          "name": "_ids",
          "type": "uint256[]"
        }
      ],
      "stateMutability": "nonpayable",
      "type": "constructor"
    },
    {
      "anonymous": false,
      "inputs": [
        {
          "indexed": true,
          "internalType": "address",
          "name": "account",
          "type": "address"
        },
        {
          "indexed": true,
          "internalType": "address",
          "name": "operator",
          "type": "address"
        },
        {
          "indexed": false,
          "internalType": "bool",
          "name": "approved",
          "type": "bool"
        }
      ],
      "name": "ApprovalForAll",
      "type": "event"
    },
    {
      "anonymous": false,
      "inputs": [
        {
          "indexed": true,
          "internalType": "address",
          "name": "previousOwner",
          "type": "address"
        },
        {
          "indexed": true,
          "internalType": "address",
          "name": "newOwner",
          "type": "address"
        }
      ],
      "name": "OwnershipTransferred",
      "type": "event"
    },
    {
      "anonymous": false,
      "inputs": [
        {
          "indexed": true,
          "internalType": "address",
          "name": "operator",
          "type": "address"
        },
        {
          "indexed": true,
          "internalType": "address",
          "name": "from",
          "type": "address"
        },
        {
          "indexed": true,
          "internalType": "address",
          "name": "to",
          "type": "address"
        },
        {
          "indexed": false,
          "internalType": "uint256[]",
          "name": "ids",
          "type": "uint256[]"
        },
        {
          "indexed": false,
          "internalType": "uint256[]",
          "name": "values",
          "type": "uint256[]"
        }
      ],
      "name": "TransferBatch",
      "type": "event"
    },
    {
      "anonymous": false,
      "inputs": [
        {
          "indexed": true,
          "internalType": "address",
          "name": "operator",
          "type": "address"
        },
        {
          "indexed": true,
          "internalType": "address",
          "name": "from",
          "type": "address"
        },
        {
          "indexed": true,
          "internalType": "address",
          "name": "to",
          "type": "address"
        },
        {
          "indexed": false,
          "internalType": "uint256",
          "name": "id",
          "type": "uint256"
        },
        {
          "indexed": false,
          "internalType": "uint256",
          "name": "value",
          "type": "uint256"
        }
      ],
      "name": "TransferSingle",
      "type": "event"
    },
    {
      "anonymous": false,
      "inputs": [
        {
          "indexed": false,
          "internalType": "string",
          "name": "value",
          "type": "string"
        },
        {
          "indexed": true,
          "internalType": "uint256",
          "name": "id",
          "type": "uint256"
        }
      ],
      "name": "URI",
      "type": "event"
    },
    {
      "inputs": [
        {
          "internalType": "address",
          "name": "account",
          "type": "address"
        },
        {
          "internalType": "uint256",
          "name": "id",
          "type": "uint256"
        }
      ],
      "name": "balanceOf",
      "outputs": [
        {
          "internalType": "uint256",
          "name": "",
          "type": "uint256"
        }
      ],
      "stateMutability": "view",
      "type": "function"
    },
    {
      "inputs": [
        {
          "internalType": "address[]",
          "name": "accounts",
          "type": "address[]"
        },
        {
          "internalType": "uint256[]",
          "name": "ids",
          "type": "uint256[]"
        }
      ],
      "name": "balanceOfBatch",
      "outputs": [
        {
          "internalType": "uint256[]",
          "name": "",
          "type": "uint256[]"
        }
      ],
      "stateMutability": "view",
      "type": "function"
    },
    {
      "inputs": [],
      "name": "baseMetadataURI",
      "outputs": [
        {
          "internalType": "string",
          "name": "",
          "type": "string"
        }
      ],
      "stateMutability": "view",
      "type": "function"
    },
    {
      "inputs": [
        {
          "internalType": "uint256",
          "name": "",
          "type": "uint256"
        }
      ],
      "name": "idToName",
      "outputs": [
        {
          "internalType": "string",
          "name": "",
          "type": "string"
        }
      ],
      "stateMutability": "view",
      "type": "function"
    },
    {
      "inputs": [
        {
          "internalType": "uint256",
          "name": "",
          "type": "uint256"
        }
      ],
      "name": "ids",
      "outputs": [
        {
          "internalType": "uint256",
          "name": "",
          "type": "uint256"
        }
      ],
      "stateMutability": "view",
      "type": "function"
    },
    {
      "inputs": [
        {
          "internalType": "address",
          "name": "account",
          "type": "address"
        },
        {
          "internalType": "address",
          "name": "operator",
          "type": "address"
        }
      ],
      "name": "isApprovedForAll",
      "outputs": [
        {
          "internalType": "bool",
          "name": "",
          "type": "bool"
        }
      ],
      "stateMutability": "view",
      "type": "function"
    },
    {
      "inputs": [],
      "name": "mintFee",
      "outputs": [
        {
          "internalType": "uint256",
          "name": "",
          "type": "uint256"
        }
      ],
      "stateMutability": "view",
      "type": "function"
    },
    {
      "inputs": [],
      "name": "name",
      "outputs": [
        {
          "internalType": "string",
          "name": "",
          "type": "string"
        }
      ],
      "stateMutability": "view",
      "type": "function"
    },
    {
      "inputs": [
        {
          "internalType": "string",
          "name": "",
          "type": "string"
        }
      ],
      "name": "nameToId",
      "outputs": [
        {
          "internalType": "uint256",
          "name": "",
          "type": "uint256"
        }
      ],
      "stateMutability": "view",
      "type": "function"
    },
    {
      "inputs": [
        {
          "internalType": "uint256",
          "name": "",
          "type": "uint256"
        }
      ],
      "name": "names",
      "outputs": [
        {
          "internalType": "string",
          "name": "",
          "type": "string"
        }
      ],
      "stateMutability": "view",
      "type": "function"
    },
    {
      "inputs": [],
      "name": "owner",
      "outputs": [
        {
          "internalType": "address",
          "name": "",
          "type": "address"
        }
      ],
      "stateMutability": "view",
      "type": "function"
    },
    {
      "inputs": [],
      "name": "renounceOwnership",
      "outputs": [],
      "stateMutability": "nonpayable",
      "type": "function"
    },
    {
      "inputs": [
        {
          "internalType": "address",
          "name": "from",
          "type": "address"
        },
        {
          "internalType": "address",
          "name": "to",
          "type": "address"
        },
        {
          "internalType": "uint256[]",
          "name": "ids",
          "type": "uint256[]"
        },
        {
          "internalType": "uint256[]",
          "name": "amounts",
          "type": "uint256[]"
        },
        {
          "internalType": "bytes",
          "name": "data",
          "type": "bytes"
        }
      ],
      "name": "safeBatchTransferFrom",
      "outputs": [],
      "stateMutability": "nonpayable",
      "type": "function"
    },
    {
      "inputs": [
        {
          "internalType": "address",
          "name": "from",
          "type": "address"
        },
        {
          "internalType": "address",
          "name": "to",
          "type": "address"
        },
        {
          "internalType": "uint256",
          "name": "id",
          "type": "uint256"
        },
        {
          "internalType": "uint256",
          "name": "amount",
          "type": "uint256"
        },
        {
          "internalType": "bytes",
          "name": "data",
          "type": "bytes"
        }
      ],
      "name": "safeTransferFrom",
      "outputs": [],
      "stateMutability": "nonpayable",
      "type": "function"
    },
    {
      "inputs": [
        {
          "internalType": "address",
          "name": "operator",
          "type": "address"
        },
        {
          "internalType": "bool",
          "name": "approved",
          "type": "bool"
        }
      ],
      "name": "setApprovalForAll",
      "outputs": [],
      "stateMutability": "nonpayable",
      "type": "function"
    },
    {
      "inputs": [
        {
          "internalType": "bytes4",
          "name": "interfaceId",
          "type": "bytes4"
        }
      ],
      "name": "supportsInterface",
      "outputs": [
        {
          "internalType": "bool",
          "name": "",
          "type": "bool"
        }
      ],
      "stateMutability": "view",
      "type": "function"
    },
    {
      "inputs": [
        {
          "internalType": "address",
          "name": "newOwner",
          "type": "address"
        }
      ],
      "name": "transferOwnership",
      "outputs": [],
      "stateMutability": "nonpayable",
      "type": "function"
    },
    {
      "inputs": [
        {
          "internalType": "uint256",
          "name": "_tokenid",
          "type": "uint256"
        }
      ],
      "name": "uri",
      "outputs": [
        {
          "internalType": "string",
          "name": "",
          "type": "string"
        }
      ],
      "stateMutability": "view",
      "type": "function"
    },
    {
      "inputs": [],
      "name": "getNames",
      "outputs": [
        {
          "internalType": "string[]",
          "name": "",
          "type": "string[]"
        }
      ],
      "stateMutability": "view",
      "type": "function"
    },
    {
      "inputs": [
        {
          "internalType": "string",
          "name": "newuri",
          "type": "string"
        }
      ],
      "name": "setURI",
      "outputs": [],
      "stateMutability": "nonpayable",
      "type": "function"
    },
    {
      "inputs": [
        {
          "internalType": "uint256",
          "name": "_fee",
          "type": "uint256"
        }
      ],
      "name": "setFee",
      "outputs": [],
      "stateMutability": "nonpayable",
      "type": "function"
    },
    {
      "inputs": [
        {
          "internalType": "address",
          "name": "account",
          "type": "address"
        },
        {
          "internalType": "uint256",
          "name": "_id",
          "type": "uint256"
        },
        {
          "internalType": "uint256",
          "name": "amount",
          "type": "uint256"
        }
      ],
      "name": "mint",
      "outputs": [
        {
          "internalType": "uint256",
          "name": "",
          "type": "uint256"
        }
      ],
      "stateMutability": "payable",
      "type": "function"
    },
    {
      "inputs": [
        {
          "internalType": "address",
          "name": "to",
          "type": "address"
        },
        {
          "internalType": "uint256[]",
          "name": "_ids",
          "type": "uint256[]"
        },
        {
          "internalType": "uint256[]",
          "name": "amounts",
          "type": "uint256[]"
        },
        {
          "internalType": "bytes",
          "name": "data",
          "type": "bytes"
        }
      ],
      "name": "mintBatch",
      "outputs": [],
      "stateMutability": "nonpayable",
      "type": "function"
    }
  ],
  "bytecode": "0x608060405260006008553480156200001657600080fd5b5060405162002a2c38038062002a2c833981016040819052620000399162000688565b826200004581620000d3565b506200005133620000ec565b81516200006690600490602085019062000359565b5080516200007c906005906020840190620003bd565b50620000876200013e565b620000928362000266565b8251620000a790600690602086019062000409565b508351620000bd90600790602087019062000409565b50620000c9326200027b565b505050506200092b565b8051620000e890600290602084019062000409565b5050565b600380546001600160a01b038381166001600160a01b0319831681179093556040519116919082907f8be0079c531659141344cd1fd0a4f28419497f9722a3daafe3b4186f6b6457e090600090a35050565b60005b6005548110156200026357600581815481106200016e57634e487b7160e01b600052603260045260246000fd5b90600052602060002001546009600483815481106200019d57634e487b7160e01b600052603260045260246000fd5b90600052602060002001604051620001b69190620007b4565b908152604051908190036020019020556004805482908110620001e957634e487b7160e01b600052603260045260246000fd5b90600052602060002001600a6000600584815481106200021957634e487b7160e01b600052603260045260246000fd5b906000526020600020015481526020019081526020016000209080546200024090620008b0565b6200024d92919062000485565b50806200025a81620008ed565b91505062000141565b50565b62000270620002fb565b6200026381620000d3565b62000285620002fb565b6001600160a01b038116620002f05760405162461bcd60e51b815260206004820152602660248201527f4f776e61626c653a206e6577206f776e657220697320746865207a65726f206160448201526564647265737360d01b60648201526084015b60405180910390fd5b6200026381620000ec565b6003546001600160a01b03163314620003575760405162461bcd60e51b815260206004820181905260248201527f4f776e61626c653a2063616c6c6572206973206e6f7420746865206f776e65726044820152606401620002e7565b565b828054828255906000526020600020908101928215620003ab579160200282015b82811115620003ab57825180516200039a91849160209091019062000409565b50916020019190600101906200037a565b50620003b992915062000509565b5090565b828054828255906000526020600020908101928215620003fb579160200282015b82811115620003fb578251825591602001919060010190620003de565b50620003b99291506200052a565b8280546200041790620008b0565b90600052602060002090601f0160209004810192826200043b5760008555620003fb565b82601f106200045657805160ff1916838001178555620003fb565b82800160010185558215620003fb5791820182811115620003fb578251825591602001919060010190620003de565b8280546200049390620008b0565b90600052602060002090601f016020900481019282620004b75760008555620003fb565b82601f10620004ca5780548555620003fb565b82800160010185558215620003fb57600052602060002091601f016020900482015b82811115620003fb578254825591600101919060010190620004ec565b80821115620003b957600062000520828262000541565b5060010162000509565b5b80821115620003b957600081556001016200052b565b5080546200054f90620008b0565b6000825580601f1062000560575050565b601f0160209004906000526020600020908101906200026391906200052a565b600082601f83011262000591578081fd5b81516020620005aa620005a4836200088a565b62000857565b80838252828201915082860187848660051b8901011115620005ca578586fd5b855b85811015620005ea57815184529284019290840190600101620005cc565b5090979650505050505050565b600082601f83011262000608578081fd5b81516001600160401b0381111562000624576200062462000915565b60206200063a601f8301601f1916820162000857565b82815285828487010111156200064e578384fd5b835b838110156200066d57858101830151828201840152820162000650565b838111156200067e57848385840101525b5095945050505050565b600080600080608085870312156200069e578384fd5b84516001600160401b0380821115620006b5578586fd5b620006c388838901620005f7565b9550602091508187015181811115620006da578586fd5b620006e889828a01620005f7565b955050604087015181811115620006fd578485fd5b8701601f810189136200070e578485fd5b80516200071f620005a4826200088a565b8082825285820191508584018c878560051b87010111156200073f578889fd5b885b848110156200077d5781518781111562000759578a8bfd5b620007698f8a838a0101620005f7565b855250928701929087019060010162000741565b505060608b015190975094505050508082111562000799578283fd5b50620007a88782880162000580565b91505092959194509250565b600080835482600182811c915080831680620007d157607f831692505b6020808410821415620007f257634e487b7160e01b87526022600452602487fd5b8180156200080957600181146200081b5762000849565b60ff1986168952848901965062000849565b60008a815260209020885b86811015620008415781548b82015290850190830162000826565b505084890196505b509498975050505050505050565b604051601f8201601f191681016001600160401b038111828210171562000882576200088262000915565b604052919050565b60006001600160401b03821115620008a657620008a662000915565b5060051b60200190565b600181811c90821680620008c557607f821691505b60208210811415620008e757634e487b7160e01b600052602260045260246000fd5b50919050565b60006000198214156200090e57634e487b7160e01b81526011600452602481fd5b5060010190565b634e487b7160e01b600052604160045260246000fd5b6120f1806200093b6000396000f3fe60806040526004361061013f5760003560e01c80634e1273f4116100b6578063cd838f0f1161006f578063cd838f0f14610373578063e985e9c514610395578063f242432a146103de578063f2fde38b146103fe578063f6d8f2cb1461041e578063fac333ac1461045657600080fd5b80634e1273f4146102b45780635b2bd79e146102e157806369fe0e2d146102f6578063715018a6146103165780638da5cb5b1461032b578063a22cb4651461035357600080fd5b806313966db51161010857806313966db51461020b578063156e29f6146102215780631f7fdffa146102345780632eb2c2d614610254578063364410b3146102745780634622ab031461029457600080fd5b8062fdd58e1461014457806301ffc9a71461017757806302fe5305146101a757806306fdde03146101c95780630e89341c146101eb575b600080fd5b34801561015057600080fd5b5061016461015f3660046118a1565b610476565b6040519081526020015b60405180910390f35b34801561018357600080fd5b506101976101923660046119c7565b61050c565b604051901515815260200161016e565b3480156101b357600080fd5b506101c76101c23660046119ff565b61055e565b005b3480156101d557600080fd5b506101de610572565b60405161016e9190611cd5565b3480156101f757600080fd5b506101de610206366004611a45565b610600565b34801561021757600080fd5b5061016460085481565b61016461022f3660046118ca565b610634565b34801561024057600080fd5b506101c761024f3660046117d2565b610667565b34801561026057600080fd5b506101c761026f3660046116c9565b610679565b34801561028057600080fd5b506101de61028f366004611a45565b6106c5565b3480156102a057600080fd5b506101de6102af366004611a45565b6106de565b3480156102c057600080fd5b506102d46102cf3660046118fc565b610709565b60405161016e9190611c9d565b3480156102ed57600080fd5b506101de61086b565b34801561030257600080fd5b506101c7610311366004611a45565b610878565b34801561032257600080fd5b506101c7610885565b34801561033757600080fd5b506003546040516001600160a01b03909116815260200161016e565b34801561035f57600080fd5b506101c761036e366004611867565b610899565b34801561037f57600080fd5b506103886108a8565b60405161016e9190611c3c565b3480156103a157600080fd5b506101976103b0366004611697565b6001600160a01b03918216600090815260016020908152604080832093909416825291909152205460ff1690565b3480156103ea57600080fd5b506101c76103f936600461176f565b610981565b34801561040a57600080fd5b506101c761041936600461167d565b6109c6565b34801561042a57600080fd5b506101646104393660046119ff565b805160208183018101805160098252928201919093012091525481565b34801561046257600080fd5b50610164610471366004611a45565b610a3c565b60006001600160a01b0383166104e65760405162461bcd60e51b815260206004820152602a60248201527f455243313135353a2061646472657373207a65726f206973206e6f742061207660448201526930b634b21037bbb732b960b11b60648201526084015b60405180910390fd5b506000908152602081815260408083206001600160a01b03949094168352929052205490565b60006001600160e01b03198216636cdb3d1360e11b148061053d57506001600160e01b031982166303a24d0760e21b145b8061055857506301ffc9a760e01b6001600160e01b03198316145b92915050565b610566610a5d565b61056f81610ab7565b50565b6007805461057f90611f2a565b80601f01602080910402602001604051908101604052809291908181526020018280546105ab90611f2a565b80156105f85780601f106105cd576101008083540402835291602001916105f8565b820191906000526020600020905b8154815290600101906020018083116105db57829003601f168201915b505050505081565b6060600661060d83610aca565b60405160200161061e929190611adf565b6040516020818303038152906040529050919050565b6000600854341461064457600080fd5b61065f84848460405180602001604052806000815250610bec565b509092915050565b61067384848484610cc6565b50505050565b6001600160a01b038516331480610695575061069585336103b0565b6106b15760405162461bcd60e51b81526004016104dd90611ce8565b6106be8585858585610e2d565b5050505050565b600a602052600090815260409020805461057f90611f2a565b600481815481106106ee57600080fd5b90600052602060002001600091509050805461057f90611f2a565b6060815183511461076e5760405162461bcd60e51b815260206004820152602960248201527f455243313135353a206163636f756e747320616e6420696473206c656e677468604482015268040dad2e6dac2e8c6d60bb1b60648201526084016104dd565b6000835167ffffffffffffffff81111561079857634e487b7160e01b600052604160045260246000fd5b6040519080825280602002602001820160405280156107c1578160200160208202803683370190505b50905060005b8451811015610863576108288582815181106107f357634e487b7160e01b600052603260045260246000fd5b602002602001015185838151811061081b57634e487b7160e01b600052603260045260246000fd5b6020026020010151610476565b82828151811061084857634e487b7160e01b600052603260045260246000fd5b602090810291909101015261085c81611f92565b90506107c7565b509392505050565b6006805461057f90611f2a565b610880610a5d565b600855565b61088d610a5d565b6108976000610fe5565b565b6108a4338383611037565b5050565b60606004805480602002602001604051908101604052809291908181526020016000905b828210156109785783829060005260206000200180546108eb90611f2a565b80601f016020809104026020016040519081016040528092919081815260200182805461091790611f2a565b80156109645780601f1061093957610100808354040283529160200191610964565b820191906000526020600020905b81548152906001019060200180831161094757829003601f168201915b5050505050815260200190600101906108cc565b50505050905090565b6001600160a01b03851633148061099d575061099d85336103b0565b6109b95760405162461bcd60e51b81526004016104dd90611ce8565b6106be8585858585611118565b6109ce610a5d565b6001600160a01b038116610a335760405162461bcd60e51b815260206004820152602660248201527f4f776e61626c653a206e6577206f776e657220697320746865207a65726f206160448201526564647265737360d01b60648201526084016104dd565b61056f81610fe5565b60058181548110610a4c57600080fd5b600091825260209091200154905081565b6003546001600160a01b031633146108975760405162461bcd60e51b815260206004820181905260248201527f4f776e61626c653a2063616c6c6572206973206e6f7420746865206f776e657260448201526064016104dd565b80516108a49060029060208401906114d0565b606081610aee5750506040805180820190915260018152600360fc1b602082015290565b8160005b8115610b185780610b0281611f92565b9150610b119050600a83611ed3565b9150610af2565b60008167ffffffffffffffff811115610b4157634e487b7160e01b600052604160045260246000fd5b6040519080825280601f01601f191660200182016040528015610b6b576020820181803683370190505b5090505b8415610be457610b80600183611ee7565b9150610b8d600a86611fad565b610b98906030611ebb565b60f81b818381518110610bbb57634e487b7160e01b600052603260045260246000fd5b60200101906001600160f81b031916908160001a905350610bdd600a86611ed3565b9450610b6f565b949350505050565b6001600160a01b038416610c125760405162461bcd60e51b81526004016104dd90611e56565b336000610c1e85611242565b90506000610c2b85611242565b90506000868152602081815260408083206001600160a01b038b16845290915281208054879290610c5d908490611ebb565b909155505060408051878152602081018790526001600160a01b03808a1692600092918716917fc3d58168c5ae7397731d063d5bbf3d657854427343f4c083240f7aacaa2d0f62910160405180910390a4610cbd8360008989898961129b565b50505050505050565b6001600160a01b038416610cec5760405162461bcd60e51b81526004016104dd90611e56565b8151835114610d0d5760405162461bcd60e51b81526004016104dd90611e0e565b3360005b8451811015610dc557838181518110610d3a57634e487b7160e01b600052603260045260246000fd5b6020026020010151600080878481518110610d6557634e487b7160e01b600052603260045260246000fd5b602002602001015181526020019081526020016000206000886001600160a01b03166001600160a01b031681526020019081526020016000206000828254610dad9190611ebb565b90915550819050610dbd81611f92565b915050610d11565b50846001600160a01b031660006001600160a01b0316826001600160a01b03167f4a39dc06d4c0dbc64b70af90fd698a233a518aa5d07e595d983b8c0526c8f7fb8787604051610e16929190611cb0565b60405180910390a46106be81600087878787611406565b8151835114610e4e5760405162461bcd60e51b81526004016104dd90611e0e565b6001600160a01b038416610e745760405162461bcd60e51b81526004016104dd90611d7f565b3360005b8451811015610f77576000858281518110610ea357634e487b7160e01b600052603260045260246000fd5b602002602001015190506000858381518110610ecf57634e487b7160e01b600052603260045260246000fd5b602090810291909101810151600084815280835260408082206001600160a01b038e168352909352919091205490915081811015610f1f5760405162461bcd60e51b81526004016104dd90611dc4565b6000838152602081815260408083206001600160a01b038e8116855292528083208585039055908b16825281208054849290610f5c908490611ebb565b9250508190555050505080610f7090611f92565b9050610e78565b50846001600160a01b0316866001600160a01b0316826001600160a01b03167f4a39dc06d4c0dbc64b70af90fd698a233a518aa5d07e595d983b8c0526c8f7fb8787604051610fc7929190611cb0565b60405180910390a4610fdd818787878787611406565b505050505050565b600380546001600160a01b038381166001600160a01b0319831681179093556040519116919082907f8be0079c531659141344cd1fd0a4f28419497f9722a3daafe3b4186f6b6457e090600090a35050565b816001600160a01b0316836001600160a01b031614156110ab5760405162461bcd60e51b815260206004820152602960248201527f455243313135353a2073657474696e6720617070726f76616c20737461747573604482015268103337b91039b2b63360b91b60648201526084016104dd565b6001600160a01b03838116600081815260016020908152604080832094871680845294825291829020805460ff191686151590811790915591519182527f17307eab39ab6107e8899845ad3d59bd9653f200f220920489ca2b5937696c31910160405180910390a3505050565b6001600160a01b03841661113e5760405162461bcd60e51b81526004016104dd90611d7f565b33600061114a85611242565b9050600061115785611242565b90506000868152602081815260408083206001600160a01b038c1684529091529020548581101561119a5760405162461bcd60e51b81526004016104dd90611dc4565b6000878152602081815260408083206001600160a01b038d8116855292528083208985039055908a168252812080548892906111d7908490611ebb565b909155505060408051888152602081018890526001600160a01b03808b16928c821692918816917fc3d58168c5ae7397731d063d5bbf3d657854427343f4c083240f7aacaa2d0f62910160405180910390a4611237848a8a8a8a8a61129b565b505050505050505050565b6040805160018082528183019092526060916000919060208083019080368337019050509050828160008151811061128a57634e487b7160e01b600052603260045260246000fd5b602090810291909101015292915050565b6001600160a01b0384163b15610fdd5760405163f23a6e6160e01b81526001600160a01b0385169063f23a6e61906112df9089908990889088908890600401611bf7565b602060405180830381600087803b1580156112f957600080fd5b505af1925050508015611329575060408051601f3d908101601f19168201909252611326918101906119e3565b60015b6113d657611335612003565b806308c379a0141561136f575061134a61201b565b806113555750611371565b8060405162461bcd60e51b81526004016104dd9190611cd5565b505b60405162461bcd60e51b815260206004820152603460248201527f455243313135353a207472616e7366657220746f206e6f6e20455243313135356044820152732932b1b2b4bb32b91034b6b83632b6b2b73a32b960611b60648201526084016104dd565b6001600160e01b0319811663f23a6e6160e01b14610cbd5760405162461bcd60e51b81526004016104dd90611d37565b6001600160a01b0384163b15610fdd5760405163bc197c8160e01b81526001600160a01b0385169063bc197c819061144a9089908990889088908890600401611b99565b602060405180830381600087803b15801561146457600080fd5b505af1925050508015611494575060408051601f3d908101601f19168201909252611491918101906119e3565b60015b6114a057611335612003565b6001600160e01b0319811663bc197c8160e01b14610cbd5760405162461bcd60e51b81526004016104dd90611d37565b8280546114dc90611f2a565b90600052602060002090601f0160209004810192826114fe5760008555611544565b82601f1061151757805160ff1916838001178555611544565b82800160010185558215611544579182015b82811115611544578251825591602001919060010190611529565b50611550929150611554565b5090565b5b808211156115505760008155600101611555565b600067ffffffffffffffff83111561158357611583611fed565b60405161159a601f8501601f191660200182611f65565b8091508381528484840111156115af57600080fd5b83836020830137600060208583010152509392505050565b80356001600160a01b03811681146115de57600080fd5b919050565b600082601f8301126115f3578081fd5b8135602061160082611e97565b60405161160d8282611f65565b8381528281019150858301600585901b8701840188101561162c578586fd5b855b8581101561164a5781358452928401929084019060010161162e565b5090979650505050505050565b600082601f830112611667578081fd5b61167683833560208501611569565b9392505050565b60006020828403121561168e578081fd5b611676826115c7565b600080604083850312156116a9578081fd5b6116b2836115c7565b91506116c0602084016115c7565b90509250929050565b600080600080600060a086880312156116e0578081fd5b6116e9866115c7565b94506116f7602087016115c7565b9350604086013567ffffffffffffffff80821115611713578283fd5b61171f89838a016115e3565b94506060880135915080821115611734578283fd5b61174089838a016115e3565b93506080880135915080821115611755578283fd5b5061176288828901611657565b9150509295509295909350565b600080600080600060a08688031215611786578081fd5b61178f866115c7565b945061179d602087016115c7565b93506040860135925060608601359150608086013567ffffffffffffffff8111156117c6578182fd5b61176288828901611657565b600080600080608085870312156117e7578384fd5b6117f0856115c7565b9350602085013567ffffffffffffffff8082111561180c578485fd5b611818888389016115e3565b9450604087013591508082111561182d578384fd5b611839888389016115e3565b9350606087013591508082111561184e578283fd5b5061185b87828801611657565b91505092959194509250565b60008060408385031215611879578182fd5b611882836115c7565b915060208301358015158114611896578182fd5b809150509250929050565b600080604083850312156118b3578182fd5b6118bc836115c7565b946020939093013593505050565b6000806000606084860312156118de578081fd5b6118e7846115c7565b95602085013595506040909401359392505050565b6000806040838503121561190e578182fd5b823567ffffffffffffffff80821115611925578384fd5b818501915085601f830112611938578384fd5b8135602061194582611e97565b6040516119528282611f65565b8381528281019150858301600585901b870184018b1015611971578889fd5b8896505b8487101561199a57611986816115c7565b835260019690960195918301918301611975565b50965050860135925050808211156119b0578283fd5b506119bd858286016115e3565b9150509250929050565b6000602082840312156119d8578081fd5b8135611676816120a5565b6000602082840312156119f4578081fd5b8151611676816120a5565b600060208284031215611a10578081fd5b813567ffffffffffffffff811115611a26578182fd5b8201601f81018413611a36578182fd5b610be484823560208401611569565b600060208284031215611a56578081fd5b5035919050565b6000815180845260208085019450808401835b83811015611a8c57815187529582019590820190600101611a70565b509495945050505050565b60008151808452611aaf816020860160208601611efe565b601f01601f19169290920160200192915050565b60008151611ad5818560208601611efe565b9290920192915050565b600080845482600182811c915080831680611afb57607f831692505b6020808410821415611b1b57634e487b7160e01b87526022600452602487fd5b818015611b2f5760018114611b4057611b6c565b60ff19861689528489019650611b6c565b60008b815260209020885b86811015611b645781548b820152908501908301611b4b565b505084890196505b505050505050611b90611b7f8286611ac3565b64173539b7b760d91b815260050190565b95945050505050565b6001600160a01b0386811682528516602082015260a060408201819052600090611bc590830186611a5d565b8281036060840152611bd78186611a5d565b90508281036080840152611beb8185611a97565b98975050505050505050565b6001600160a01b03868116825285166020820152604081018490526060810183905260a060808201819052600090611c3190830184611a97565b979650505050505050565b6000602080830181845280855180835260408601915060408160051b8701019250838701855b82811015611c9057603f19888603018452611c7e858351611a97565b94509285019290850190600101611c62565b5092979650505050505050565b6020815260006116766020830184611a5d565b604081526000611cc36040830185611a5d565b8281036020840152611b908185611a5d565b6020815260006116766020830184611a97565b6020808252602f908201527f455243313135353a2063616c6c6572206973206e6f7420746f6b656e206f776e60408201526e195c881b9bdc88185c1c1c9bdd9959608a1b606082015260800190565b60208082526028908201527f455243313135353a204552433131353552656365697665722072656a656374656040820152676420746f6b656e7360c01b606082015260800190565b60208082526025908201527f455243313135353a207472616e7366657220746f20746865207a65726f206164604082015264647265737360d81b606082015260800190565b6020808252602a908201527f455243313135353a20696e73756666696369656e742062616c616e636520666f60408201526939103a3930b739b332b960b11b606082015260800190565b60208082526028908201527f455243313135353a2069647320616e6420616d6f756e7473206c656e677468206040820152670dad2e6dac2e8c6d60c31b606082015260800190565b60208082526021908201527f455243313135353a206d696e7420746f20746865207a65726f206164647265736040820152607360f81b606082015260800190565b600067ffffffffffffffff821115611eb157611eb1611fed565b5060051b60200190565b60008219821115611ece57611ece611fc1565b500190565b600082611ee257611ee2611fd7565b500490565b600082821015611ef957611ef9611fc1565b500390565b60005b83811015611f19578181015183820152602001611f01565b838111156106735750506000910152565b600181811c90821680611f3e57607f821691505b60208210811415611f5f57634e487b7160e01b600052602260045260246000fd5b50919050565b601f8201601f1916810167ffffffffffffffff81118282101715611f8b57611f8b611fed565b6040525050565b6000600019821415611fa657611fa6611fc1565b5060010190565b600082611fbc57611fbc611fd7565b500690565b634e487b7160e01b600052601160045260246000fd5b634e487b7160e01b600052601260045260246000fd5b634e487b7160e01b600052604160045260246000fd5b600060033d111561201857600481823e5160e01c5b90565b600060443d10156120295790565b6040516003193d81016004833e81513d67ffffffffffffffff816024840111818411171561205957505050505090565b82850191508151818111156120715750505050505090565b843d870101602082850101111561208b5750505050505090565b61209a60208286010187611f65565b509095945050505050565b6001600160e01b03198116811461056f57600080fdfea26469706673582212203b0c06b442720ab9a851ef49e760dbfb8627e56c45c5b43759ca60dc4638765564736f6c63430008040033",
  "immutableReferences": {},
  "source": "// SPDX-License-Identifier: MIT\npragma solidity ^0.8.4;\n\nimport \"@openzeppelin/contracts/token/ERC1155/ERC1155.sol\";\nimport \"@openzeppelin/contracts/access/Ownable.sol\";\nimport \"@openzeppelin/contracts/utils/Strings.sol\";\n\ncontract ERC1155Token is ERC1155, Ownable {\n\n    string[] public names; //string array of names\n    uint[] public ids; //uint array of ids\n    string public baseMetadataURI; //the token metadata URI\n    string public name; //the token mame\n    uint public mintFee = 0 wei; //mintfee, 0 by default. only used in mint function, not batch.\n    \n    mapping(string => uint) public nameToId; //name to id mapping\n    mapping(uint => string) public idToName; //id to name mapping\n\n    /*\n    constructor is executed when the factory contract calls its own deployERC1155 method\n    */\n    constructor(string memory _contractName, string memory _uri, string[] memory _names, uint[] memory _ids) ERC1155(_uri) {\n        names = _names;\n        ids = _ids;\n        createMapping();\n        setURI(_uri);\n        baseMetadataURI = _uri;\n        name = _contractName;\n        transferOwnership(tx.origin);\n    }   \n\n    /*\n    creates a mapping of strings to ids (i.e [\"one\",\"two\"], [1,2] - \"one\" maps to 1, vice versa.)\n    */\n    function createMapping() private {\n        for (uint id = 0; id < ids.length; id++) {\n            nameToId[names[id]] = ids[id];\n            idToName[ids[id]] = names[id];\n        }\n    }\n    /*\n    sets our URI and makes the ERC1155 OpenSea compatible\n    */\n    function uri(uint256 _tokenid) override public view returns (string memory) {\n        return string(\n            abi.encodePacked(\n                baseMetadataURI,\n                Strings.toString(_tokenid),\".json\"\n            )\n        );\n    }\n\n    function getNames() public view returns(string[] memory) {\n        return names;\n    }\n\n    /*\n    used to change metadata, only owner access\n    */\n    function setURI(string memory newuri) public onlyOwner {\n        _setURI(newuri);\n    }\n\n    /*\n    set a mint fee. only used for mint, not batch.\n    */\n    function setFee(uint _fee) public onlyOwner {\n        mintFee = _fee;\n    }\n\n    /*\n    mint(address account, uint _id, uint256 amount)\n\n    account - address to mint the token to\n    _id - the ID being minted\n    amount - amount of tokens to mint\n    */\n    function mint(address account, uint _id, uint256 amount) \n        public payable returns (uint)\n    {\n        require(msg.value == mintFee);\n        _mint(account, _id, amount, \"\");\n        return _id;\n    }\n\n    /*\n    mintBatch(address to, uint256[] memory _ids, uint256[] memory amounts, bytes memory data)\n\n    to - address to mint the token to\n    _ids - the IDs being minted\n    amounts - amount of tokens to mint given ID\n    bytes - additional field to pass data to function\n    */\n    function mintBatch(address to, uint256[] memory _ids, uint256[] memory amounts, bytes memory data)\n        public\n    {\n        _mintBatch(to, _ids, amounts, data);\n    }\n}",
  "sourcePath": "/Users/administrator/freechain_protocol/contracts/ERC1155Token.sol",
  "compiler": {
    "name": "solc",
    "version": "0.8.4+commit.c7e474f2.Emscripten.clang"
  },
  "schemaVersion": "3.4.9",
  "updatedAt": "2022-08-12T03:59:04.819Z",
  "devdoc": {
    "kind": "dev",
    "methods": {
      "balanceOf(address,uint256)": {
        "details": "See {IERC1155-balanceOf}. Requirements: - `account` cannot be the zero address."
      },
      "balanceOfBatch(address[],uint256[])": {
        "details": "See {IERC1155-balanceOfBatch}. Requirements: - `accounts` and `ids` must have the same length."
      },
      "isApprovedForAll(address,address)": {
        "details": "See {IERC1155-isApprovedForAll}."
      },
      "owner()": {
        "details": "Returns the address of the current owner."
      },
      "renounceOwnership()": {
        "details": "Leaves the contract without owner. It will not be possible to call `onlyOwner` functions anymore. Can only be called by the current owner. NOTE: Renouncing ownership will leave the contract without an owner, thereby removing any functionality that is only available to the owner."
      },
      "safeBatchTransferFrom(address,address,uint256[],uint256[],bytes)": {
        "details": "See {IERC1155-safeBatchTransferFrom}."
      },
      "safeTransferFrom(address,address,uint256,uint256,bytes)": {
        "details": "See {IERC1155-safeTransferFrom}."
      },
      "setApprovalForAll(address,bool)": {
        "details": "See {IERC1155-setApprovalForAll}."
      },
      "supportsInterface(bytes4)": {
        "details": "See {IERC165-supportsInterface}."
      },
      "transferOwnership(address)": {
        "details": "Transfers ownership of the contract to a new account (`newOwner`). Can only be called by the current owner."
      }
    },
    "version": 1
  },
  "userdoc": {
    "kind": "user",
    "methods": {},
    "version": 1
  }
}